:1000000045C0000060C000005EC000005CC0000091
:100010005AC0000058C0000056C0000054C0000084
:1000200052C0000050C000004EC000004CC0000094
:100030004AC00000C8C0000046C0000044C0000024
:1000400042C0000040C000003EC0000049C10000A6
:100050003AC0000038C0000036C0000034C00000C4
:1000600032C0000030C000002EC000002CC00000D4
:100070002AC0000028C0000026C0000024C00000E4
:1000800022C0000020C000001EC0000011241FBEBE
:10009000CFEFD0E4DEBFCDBF11E0A0E0B1E0E4E6F9
:1000A000F3E000E00BBF02C007900D92A430B1074F
:1000B000D9F721E0A4E0B1E001C01D92AF30B20752
:1000C000E1F71DD14DC19CCF89B180958F70809390
:1000D0000D0180910E01882311F081110AC08091D9
:1000E000050182B980910D01813019F48FE08EBD38
:1000F000139A0895CF92DF92EF92FF921F93CF93BE
:10010000DF931092040180910601882309F453C003
:1001100080E01BE0C0910B01D0910C01189FC00D35
:10012000D11D11244D815E816F81788589819A81ED
:10013000AB81BC81481759076A077B07B0F08881FB
:10014000E985FA85082E000C990B09958883809122
:100150000401E0910B01F0910C01189FE00DF11DDD
:100160001124158216821782108680910401E09175
:100170000B01F0910C01189FE00DF11D1124C580B9
:10018000D680E780F0844091000150910101609198
:100190000201709103014C0D5D1D6E1D7F1D458395
:1001A0005683678370878F5F809304019091060167
:1001B000891708F4AFCFDF91CF911F91FF90EF9097
:1001C000DF90CF9008951F920F920FB60F921124D7
:1001D0000BB60F922F933F934F935F936F937F9341
:1001E0008F939F93AF93BF93EF93FF9380910701FA
:1001F00090910801A0910901B0910A010197A1090C
:10020000B1098093070190930801A0930901B0936D
:100210000A01892B8A2B8B2B89F46CDF80910001DA
:1002200090910101A0910201B09103018093070117
:1002300090930801A0930901B0930A01FF91EF91F7
:10024000BF91AF919F918F917F916F915F914F91EE
:100250003F912F910F900BBE0F900FBE0F901F90EC
:1002600018956093000170930101809302019093AF
:100270000301609307017093080180930901909333
:100280000A0108958BE0809381008DE790E09093C0
:1002900089008093880082E080936F00109285002F
:1002A000109284008091000190910101A0910201BF
:1002B000B09103018093070190930801A093090175
:1002C000B0930A018FB780688FBF089580E484B926
:1002D0008FEB85B98CB5806C8CBD80E88FBF08959D
:1002E0001F920F920FB60F9211248F938EB58093A9
:1002F00005018F910F900FBE0F901F901895CF930F
:10030000DF93CDB7DEB72B970FB6F894DEBF0FBEE5
:10031000CDBF1FEF11B912B81AB81BB9D7DF81E0F2
:1003200080930601CE01019690930C0180930B01FE
:10033000198384E690E0A0E0B0E08A839B83AC83DD
:10034000BD838E839F83A887B98784E690E09B87CF
:100350008A8764E670E080E090E083DF93DFFFCF80
:04036000F894FFCF3F
:040364000100000094
:00000001FF
